:100000000C9463000C948B000C948B000C948B006C
:100010000C948B000C948B000C948B000C94BA0401
:100020000C948B000C948B000C948B000C948B0024
:100030000C948B000C948B000C948B000C948B0014
:100040000C9494050C948B000C9462050C943C0564
:100050000C948B000C948B000C948B000C948B00F4
:100060000C948B000C948B000000000024002700EF
:100070002A000000000023002600290000000008DC
:10008000000201000003040700000000000000005F
:10009000010204081020408001020408102001021F
:1000A0000408102000000000250028002B00040494
:1000B0000404040404040202020202020303030310
:1000C00003030200CC0711241FBECFEFD8E0DEBF30
:1000D000CDBF22E0A6E4B1E001C01D92A130B2077D
:1000E000E1F711E0A0E0B1E0E4E7F5E102C005903E
:1000F0000D92A634B107D9F710E0C3E6D0E004C0F2
:100100002197FE010E94C008C236D107C9F70E949C
:10011000DE050C94B80A0C940000AF92BF92CF9207
:10012000DF92EF92FF920F931F93CF93DF936C01B7
:100130007B018B01040F151FEB015E01AE18BF0898
:10014000C017D10759F06991D601ED91FC9101904A
:10015000F081E02DC6010995892B79F7C501DF9162
:10016000CF911F910F91FF90EF90DF90CF90BF90B4
:10017000AF90089542E050E06DE171E08FE491E0CE
:100180000C948D00FC01538D448D252F30E0842F7D
:1001900090E0821B930B541710F0CF9608950197AF
:1001A0000895FC01918D828D981761F0A28DAE0F9C
:1001B000BF2FB11D5D968C91928D9F5F9F73928F23
:1001C00090E008958FEF9FEF0895FC01918D828D4F
:1001D000981731F0828DE80FF11D858D90E008951C
:1001E0008FEF9FEF0895FC01918D228D892F90E074
:1001F000805C9F4F821B91098F73992708958FE42C
:1002000091E00E94F30021E0892B09F420E0822F85
:10021000089580E090E0892B29F00E94FF00811171
:100220000C9400000895FC01A48DA80FB92FB11DF6
:10023000A35ABF4F2C91848D90E001968F7399271C
:10024000848FA689B7892C93A089B1898C918370FA
:1002500080648C93938D848D981306C00288F389F3
:10026000E02D80818F7D80830895EF92FF920F9320
:100270001F93CF93DF93EC0181E0888F9B8D8C8D52
:1002800098131AC0E889F989808185FF15C09FB746
:10029000F894EE89FF896083E889F9898081837009
:1002A000806480839FBF81E090E0DF91CF911F91B8
:1002B0000F91FF90EF900895F62E0B8D10E00F5FD9
:1002C0001F4F0F731127E02E8C8D8E110CC00FB6AF
:1002D00007FCFACFE889F989808185FFF5CFCE0147
:1002E0000E941301F1CFEB8DEC0FFD2FF11DE35AAE
:1002F000FF4FF0829FB7F8940B8FEA89FB898081CA
:100300008062CFCFCF93DF93EC01888D8823B9F043
:10031000AA89BB89E889F9898C9185FD03C0808110
:1003200086FD0DC00FB607FCF7CF8C9185FFF2CF8D
:10033000808185FFEDCFCE010E941301E9CFDF91CF
:10034000CF910895833081F028F4813099F0823084
:10035000A9F008958730A9F08830C9F08430B1F44D
:10036000809180008F7D03C0809180008F77809383
:100370008000089584B58F7784BD089584B58F7DFE
:10038000FBCF8091B0008F778093B000089580916B
:10039000B0008F7DF9CFCF93DF93EEE7F0E084914B
:1003A000E2E9F0E0D491E0EBF0E0C491CC23A1F0DD
:1003B00081110E94A201EC2FF0E0EE0FFF1FEE581A
:1003C000FF4FA591B491EC91ED2381E090E009F409
:1003D00080E0DF91CF91089580E090E0FACF1F9305
:1003E000CF93DF93282F30E0F901E458FF4F849139
:1003F000F901E057FF4FD491F901E255FF4FC49145
:10040000CC23A9F0162F81110E94A201EC2FF0E05D
:10041000EE0FFF1FEC55FF4FA591B4918FB7F894E5
:10042000EC91111108C0D095DE23DC938FBFDF91D2
:10043000CF911F910895DE2BF8CFCF93DF9390E0FB
:10044000FC01E057FF4F249182559F4FFC0184919E
:100450008823D1F090E0880F991FFC01E859FF4FE5
:10046000A591B491FC01EC55FF4FC591D491623038
:1004700071F49FB7F8943C91822F809583238C93DD
:10048000E8812E2B28839FBFDF91CF9108958FB7EE
:10049000F894EC912E2B2C938FBFF6CF4F925F9256
:1004A0006F927F928F929F92AF92BF92CF92DF9284
:1004B000EF92FF920F931F93CF938C016A017B0100
:1004C00080910401883099F08F3F09F453C0CF9197
:1004D0001F910F91FF90EF90DF90CF90BF90AF9062
:1004E0009F908F907F906F905F904F900895E2EC77
:1004F000F0E0C491C7FDEBCF61E088E00E941D02EF
:100500002801712C612CCC23F1F0980150E040E0DF
:10051000C23009F09EC028013A0164E274EF80E025
:1005200090E00E94A10849015A0181E0881A9108CF
:10053000A108B10895E08FEF88169104A104B104D9
:1005400009F00CF4DFC062E17AE780E090E0A301FB
:1005500092010E94A10849015A0181E0881A91087C
:10056000A108B10896E0C111CDC085B5887F84602F
:1005700085BD84C088E080930401E2ECF0E0C49182
:10058000CF3F09F4A4CFC13021F150F0C23009F4BB
:100590003EC0C7FD9CCF61E088E00E941D02B5CF40
:1005A00014BC15BC84B5826084BD85B5816085BDF1
:1005B000E6EBF0E0E491F0E0EE0FFF1FEC55FF4FAB
:1005C00085919491E8E9F0E0E491E093F001C0E0D6
:1005D00093CF1092800010928100809181008860FA
:1005E0008093810080918100816080938100E6EB9F
:1005F000F0E0E491F0E0EE0FFF1FEC55FF4F859126
:100600009491E8E9F0E0E491E093EF0175CF109266
:10061000B0001092B1008091B00082608093B00071
:100620008091B10081608093B100E6EBF0E0E4914D
:10063000F0E0EE0FFF1FEC55FF4F859194919093E2
:10064000EE018093ED01E8E9F0E0E491E093EC0144
:1006500053CF60E072E18AE790E00E94A10849016F
:100660005A0181E0881A9108A108B108C13031F41B
:1006700080918100887F816080938100D801AA0FDA
:10068000BB1FA70196010E942E0828EE33E040E030
:1006900050E00E947F08C13099F0C23019F1C111B9
:1006A00016CF87BC2093F9013093FA014093FB01E8
:1006B0005093FC0180916E00826080936E0007CFA2
:1006C00090928900809288002093F5013093F60182
:1006D0004093F7015093F80180916F0082608093FE
:1006E0006F00F5CE8092B3002093F1013093F201B8
:1006F0004093F3015093F4018091700082608093E5
:100700007000E5CE8091B100887F892B8093B10085
:10071000B5CF3FB7F89480914B0190914C01A091D7
:100720004D01B0914E0126B5A89B05C02F3F19F091
:100730000196A11DB11D3FBFBA2FA92F982F882761
:10074000BC01CD01620F711D811D911D42E0660F3C
:10075000771F881F991F4A95D1F708958F929F920E
:10076000AF92BF92CF92DF92EF92FF926B017C012A
:100770000E9489034B015C01C114D104E104F1041E
:10078000B9F00E948903681979098A099B09683EB2
:1007900073408105910580F321E0C21AD108E10878
:1007A000F10888EE880E83E0981EA11CB11CE4CFEE
:1007B000FF90EF90DF90CF90BF90AF909F908F9081
:1007C00008950F931F93CF93DF93EC018881998154
:1007D000009759F02A813B812617370730F081E0D6
:1007E000DF91CF911F910F9108958B016F5F7F4F24
:1007F0000E94EB09009759F0998388831B830A8331
:100800002C813D81232B59F7FC011082E8CF80E039
:10081000E7CFEF92FF920F931F93CF93DF93611572
:10082000710541F480E0DF91CF911F910F91FF900E
:10083000EF90089541155105B1F07B01EC010C8159
:100840001D81040F151FB8010E94E103882351F395
:10085000288139818C819D81B701820F931F0E946D
:10086000B10A1D830C8381E0DECFCF93DF93EC01CF
:1008700088819981009711F00E946209198218827B
:100880001D821C821B821A82DF91CF910895CF9323
:10089000DF93EC0144E050E060E271E00E94090463
:1008A000811103C0CE010E943504CE01DF91CF91AA
:1008B0000895EF92FF920F931F93CF93DF93EC0174
:1008C0007B018A01BA010E94E10381110BC0CE01B4
:1008D0000E943504CE01DF91CF911F910F91FF90BF
:1008E000EF9008951D830C83B701888199810E9440
:1008F000B10AF0CFEF92FF920F931F93CF93DF9344
:10090000CDB7DEB762970FB6F894DEBF0FBECDBF8E
:100910008C01CB01F80111821082138212821582A0
:1009200014824AE09E012F5F3F4F7901B9010E9476
:10093000F907F70101900020E9F73197AF014E194F
:100940005F09B701C8010E94590462960FB6F89476
:10095000DEBF0FBECDBFDF91CF911F910F91FF90F2
:10096000EF900895FC0180819181009711F00C9423
:10097000620908951F920F920FB60F9211242F93C0
:100980003F934F935F936F937F938F939F93AF9317
:10099000BF93EF93FF938091F1019091F201A091A9
:1009A000F301B091F401892B8A2B8B2BD1F190911B
:1009B000EC01E091ED01F091EE01808189278083C7
:1009C0008091F1019091F201A091F301B091F401B5
:1009D000181619061A061B069CF48091F1019091D5
:1009E000F201A091F301B091F4010197A109B109BD
:1009F0008093F1019093F201A093F301B093F4017D
:100A0000FF91EF91BF91AF919F918F917F916F91E6
:100A10005F914F913F912F910F900FBE0F901F90BC
:100A2000189580910401E2ECF0E0E4919FEF90933F
:100A30000401E13051F030F0E23069F060E00E94F2
:100A4000EF01DECF10926E00F9CF90916F009D7F85
:100A500090936F00F3CF909170009D7F9093700002
:100A600091E09093B0009091B100987F9460909342
:100A7000B1001092B300E2CF1F920F920FB60F9207
:100A800011242F933F934F935F936F937F938F9393
:100A90009F93AF93BF93EF93FF938FE491E00E94F6
:100AA0001301FF91EF91BF91AF919F918F917F9132
:100AB0006F915F914F913F912F910F900FBE0F90CB
:100AC0001F9018951F920F920FB60F9211242F931B
:100AD0008F939F93EF93FF93E0915F01F0916001FB
:100AE0008081E0916501F091660182FD1BC09081DB
:100AF000809168018F5F8F7320916901821741F0A7
:100B0000E0916801F0E0E15BFE4F958F8093680112
:100B1000FF91EF919F918F912F910F900FBE0F90AA
:100B20001F9018958081F4CF1F920F920FB60F92ED
:100B300011242F933F938F939F93AF93BF938091F3
:100B4000470190914801A0914901B0914A0130912B
:100B5000460123E0230F2D3758F50196A11DB11D45
:100B6000209346018093470190934801A093490147
:100B7000B0934A0180914B0190914C01A0914D019D
:100B8000B0914E010196A11DB11D80934B01909330
:100B90004C01A0934D01B0934E01BF91AF919F9135
:100BA0008F913F912F910F900FBE0F901F9018952E
:100BB00026E8230F0296A11DB11DD2CFCF93DF935C
:100BC000CDB7DEB72C970FB6F894DEBF0FBECDBF02
:100BD000789484B5826084BD84B5816084BD85B518
:100BE000826085BD85B5816085BD80916E00816024
:100BF00080936E00109281008091810082608093CA
:100C000081008091810081608093810080918000CB
:100C10008160809380008091B10084608093B100F6
:100C20008091B00081608093B00080917A008460F0
:100C300080937A0080917A00826080937A0080911C
:100C40007A00816080937A0080917A008068809336
:100C50007A001092C100E0915F01F091600182E0A2
:100C60008083E0915B01F0915C011082E0915D0175
:100C7000F0915E018FEC808310926701E091630137
:100C8000F091640186E08083E0916101F09162015E
:100C9000808180618083E0916101F09162018081B7
:100CA00088608083E0916101F091620180818068B9
:100CB0008083E0916101F091620180818F7D80836A
:100CC00062E082E00E941D0261E083E00E941D025A
:100CD00061E084E00E941D0261E085E00E941D0247
:100CE00061E086E00E941D0261E087E00E941D0233
:100CF00061E089E00E941D0261E08AE00E941D021D
:100D000061E08BE00E941D0261E08CE00E941D0208
:100D100061E08DE00E941D0244EF51E060E070E070
:100D200088EC90E00E944E026AEF70E080E090E074
:100D30000E94AE0344E650E060E070E080E991E09C
:100D40000E944E0279E0672E712CE7E0EE2EF12C26
:100D500043E0A42EB12C5DE0852E912C60E0C62EE0
:100D600060E0D62EB0920301A092020180910201B0
:100D7000909103018E3091050CF07BC0089721F40F
:100D8000709203016092020161E0809102010E9471
:100D9000EF010E94CB01892B09F052C00E94CB01C8
:100DA000019761F4809100019091010197FD0196F6
:100DB00095958795909301018093000162E070E022
:100DC000CE0101960E947A0418861F821A8619861F
:100DD0001C861B8640E250E065E271E0CE0107967A
:100DE0000E9459044D815E8169817A81CE01079606
:100DF0000E940904811104C0CE0107960E943504A7
:100E0000CE0107960E944704FC0144815581608110
:100E100071818FE491E00E948D000E94BA00CE01A2
:100E200007960E94B204CE0101960E94B20444E6E5
:100E300050E060E070E080E991E00E944E02A9CFAE
:100E40006091000170910101072E000C880B990B35
:100E50000E94AE03009102011091030160E0802F17
:100E60000E94EF010F5F1F4F1093030100930201D7
:100E70007DCF9092030180920201809102019091B6
:100E80000301833091050CF47BC0089721F4F092A4
:100E90000301E092020161E0809102010E94EF01F2
:100EA0000E94CB01892B09F052C00E94CB0101970F
:100EB000B9F7809100019091010197FD01969595F8
:100EC0008795909301018093000162E070E0CE016C
:100ED00001960E947A0418861F821A8619861C863B
:100EE0001B8640E250E065E271E0CE0107960E9469
:100EF00059044D815E8169817A81CE0107960E94F5
:100F00000904811104C0CE0107960E943504CE0168
:100F100007960E944704FC014481558160817181DC
:100F20008FE491E00E948D000E94BA00CE010796E6
:100F30000E94B204CE0101960E94B20444E650E041
:100F400060E070E080E991E00E944E02A9CF6091DC
:100F5000000170910101072E000C880B990B0E9473
:100F6000AE03009102011091030160E0802F0E9406
:100F7000EF010150110910930301009302017DCF8D
:100F8000C114D10409F4EECE0E94FF00882309F4B5
:100F9000DFCE0E940000DCCEEFE4F1E0138212828B
:100FA00088EE93E0A0E0B0E084839583A683B783C6
:100FB0008FE091E09183808385EC90E09587848732
:100FC00084EC90E09787868780EC90E0918B808B13
:100FD00081EC90E0938B828B82EC90E0958B848BFC
:100FE00086EC90E0978B868B118E128E138E148E6A
:100FF0000895BB274A3031F4992322F4BDE290953D
:1010000081959F4F0C940508BB27FB015527AA2704
:10101000880F991FAA1FA41710F0A41B8395505185
:10102000B9F7A05DAA3308F0A95DA193009779F7FD
:10103000B111B1931192CB010C941E08DC01FC019B
:10104000672F71917723E1F7329704C07C916D93FC
:1010500070836291AE17BF07C8F308950E947008AD
:10106000A59F900DB49F900DA49F800D911D1124FC
:1010700008952F923F924F925F926F927F928F923C
:101080009F92AF92BF92CF92DF92EF92FF920F9317
:101090001F93CF93DF93CDB7DEB7CA1BDB0B0FB621
:1010A000F894DEBF0FBECDBF09942A8839884888DE
:1010B0005F846E847D848C849B84AA84B984C88474
:1010C000DF80EE80FD800C811B81AA81B981CE0F6B
:1010D000D11D0FB6F894DEBF0FBECDBFED01089550
:1010E000A29FB001B39FC001A39F700D811D112469
:1010F000911DB29F700D811D1124911D0895A1E2D3
:101100001A2EAA1BBB1BFD010DC0AA1FBB1FEE1F81
:10111000FF1FA217B307E407F50720F0A21BB30BCC
:10112000E40BF50B661F771F881F991F1A9469F748
:1011300060957095809590959B01AC01BD01CF01A4
:101140000895052E97FB1EF400940E94B80857FDE1
:1011500007D00E947F0807FC03D04EF40C94B80817
:1011600050954095309521953F4F4F4F5F4F0895D3
:1011700090958095709561957F4F8F4F9F4F089503
:10118000EE0FFF1F0590F491E02D09940F931F932C
:10119000CF93DF938230910510F482E090E0E091EC
:1011A000FF01F091000230E020E0B0E0A0E03097D5
:1011B00099F42115310509F44AC0281B390B243054
:1011C0003105D8F58A819B816115710589F1FB0193
:1011D00093838283FE0111C040815181028113817A
:1011E00048175907E0F04817590799F4109761F02C
:1011F00012960C93129713961C933296CF01DF919F
:10120000CF911F910F9108950093FF011093000259
:10121000F4CF2115310551F04217530738F0A901D9
:10122000DB019A01BD01DF01F801C1CFEF01F9CF68
:10123000909300028093FF01CDCFFE01E20FF31FD8
:10124000819391932250310939832883D7CF2091FC
:10125000FD013091FE01232B41F4209107013091D3
:1012600008013093FE012093FD012091050130918A
:1012700006012115310541F42DB73EB74091090112
:1012800050910A01241B350BE091FD01F091FE0104
:10129000E217F307A0F42E1B3F0B2817390778F04D
:1012A000AC014E5F5F4F2417350748F04E0F5F1FAC
:1012B0005093FE014093FD01819391939FCFF0E005
:1012C000E0E09CCFCF93DF930097E9F0FC013297E9
:1012D00013821282A091FF01B0910002ED0130E073
:1012E00020E01097A1F420813181820F931F20917B
:1012F000FD013091FE012817390709F061C0F09314
:10130000FE01E093FD01DF91CF910895EA01CE1730
:10131000DF07E8F54A815B819E0141155105B1F770
:10132000E901FB83EA8349915991C40FD51FEC175A
:10133000FD0761F4808191810296840F951FE90178
:1013400099838883828193819B838A83F0E0E0E0A4
:1013500012968D919C9113970097B9F52D913C9120
:101360001197CD010296820F931F2091FD013091BC
:10137000FE012817390739F6309751F5109200020F
:101380001092FF01B093FE01A093FD01BCCFD38367
:10139000C28340815181840F951FC817D90761F41A
:1013A0004E5F5F4F88819981480F591F5183408359
:1013B0008A819B81938382832115310509F0B0CF07
:1013C000F0930002E093FF019ECFFD01DC01C0CF4E
:1013D00013821282D7CFB0E0A0E0E1EFF9E00C94E5
:1013E0003B088C01009751F4CB010E94C6088C0188
:1013F000C801CDB7DEB7E0E10C945708FC01E60F59
:10140000F71F9C0122503109E217F30708F49DC031
:10141000D901CD91DC911197C617D70798F0C53047
:10142000D10530F3CE0104978617970708F3C61B42
:10143000D70B2297C193D1936D937C93CF010E94D8
:101440006209D6CF5B01AC1ABD0A4C018C0E9D1E01
:10145000A091FF01B0910002512C412CF12CE12C04
:10146000109731F58091FD019091FE018815990545
:1014700009F05CC04616570608F058C08091050177
:1014800090910601009741F48DB79EB740910901F4
:1014900050910A01841B950BE817F90708F055C015
:1014A000F093FE01E093FD01F90171836083A0CF09
:1014B0008D919C91119712966C90129713967C9037
:1014C0001397A815B90559F56C0142E0C40ED11C5B
:1014D000CA14DB0420F1AC014A195B09DA01129647
:1014E000159780F06282738251834083D9016D9396
:1014F0007C93E114F10471F0D7011396FC93EE9301
:10150000129776CF22968C0F9D1FF90191838083CD
:10151000F301EFCFF0930002E093FF0169CF48168B
:10152000590608F42C017D01D3019ACFCB010E940A
:10153000C6087C01009749F0AE01B8010E94A80AD4
:10154000C8010E946209870153CF10E000E050CF2C
:10155000FB01DC0102C001900D9241505040D8F7D0
:101560000895FB01DC0101900D920020E1F7089540
:04157000F894FFCF1D
:1015740064000300FF000001028000000000003549
:10158400018D00C2008201F300D100E5000D0A00C4
:10159400E2809D2900E2809C466173746572205844
:1015A4002032202843757272656E7420537065650D
:0615B40064203A205800FB
:107E0000112484B714BE81FFF0D085E080938100F7
:107E100082E08093C00088E18093C10086E0809377
:107E2000C20080E18093C4008EE0C9D0259A86E02C
:107E300020E33CEF91E0309385002093840096BBD3
:107E4000B09BFECF1D9AA8958150A9F7CC24DD24C4
:107E500088248394B5E0AB2EA1E19A2EF3E0BF2EE7
:107E6000A2D0813461F49FD0082FAFD0023811F036
:107E7000013811F484E001C083E08DD089C08234E0
:107E800011F484E103C0853419F485E0A6D080C0E4
:107E9000853579F488D0E82EFF2485D0082F10E0AE
:107EA000102F00270E291F29000F111F8ED06801E7
:107EB0006FC0863521F484E090D080E0DECF843638
:107EC00009F040C070D06FD0082F6DD080E0C81688
:107ED00080E7D80618F4F601B7BEE895C0E0D1E017
:107EE00062D089930C17E1F7F0E0CF16F0E7DF06D8
:107EF00018F0F601B7BEE89568D007B600FCFDCFD4
:107F0000A601A0E0B1E02C9130E011968C91119780
:107F100090E0982F8827822B932B1296FA010C0160
:107F200087BEE89511244E5F5F4FF1E0A038BF0790
:107F300051F7F601A7BEE89507B600FCFDCF97BE46
:107F4000E89526C08437B1F42ED02DD0F82E2BD052
:107F50003CD0F601EF2C8F010F5F1F4F84911BD097
:107F6000EA94F801C1F70894C11CD11CFA94CF0C13
:107F7000D11C0EC0853739F428D08EE10CD085E9AC
:107F80000AD08FE07ACF813511F488E018D01DD067
:107F900080E101D065CF982F8091C00085FFFCCF94
:107FA0009093C60008958091C00087FFFCCF809118
:107FB000C00084FD01C0A8958091C6000895E0E648
:107FC000F0E098E1908380830895EDDF803219F02E
:107FD00088E0F5DFFFCF84E1DECF1F93182FE3DFCA
:107FE0001150E9F7F2DF1F91089580E0E8DFEE27F6
:047FF000FF270994CA
:027FFE00040479
:0400000300007E007B
:00000001FF
