:100000000C9463000C948B000C948B000C948B006C
:100010000C948B000C948B000C948B000C94F504C6
:100020000C948B000C948B000C948B000C948B0024
:100030000C948B000C948B000C948B000C948B0014
:100040000C94CF050C948B000C949D050C947705B3
:100050000C948B000C948B000C948B000C948B00F4
:100060000C948B000C948B000000000024002700EF
:100070002A000000000023002600290000000008DC
:10008000000201000003040700000000000000005F
:10009000010204081020408001020408102001021F
:1000A0000408102000000000250028002B00040494
:1000B0000404040404040202020202020303030310
:1000C00003030200CD0711241FBECFEFD8E0DEBF2F
:1000D000CDBF22E0A8E4B1E001C01D92A330B20779
:1000E000E1F711E0A0E0B1E0E6E7F5E102C005903C
:1000F0000D92A834B107D9F710E0C3E6D0E004C0F0
:100100002197FE010E94C108C236D107C9F70E949B
:1001100019060C94B90A0C940000AF92BF92CF92CA
:10012000DF92EF92FF920F931F93CF93DF936C01B7
:100130007B018B01040F151FEB015E01AE18BF0898
:10014000C017D10759F06991D601ED91FC9101904A
:10015000F081E02DC6010995892B79F7C501DF9162
:10016000CF911F910F91FF90EF90DF90CF90BF90B4
:10017000AF900895CF93DF93FC0144815581608156
:10018000718181E591E00E948D00EC0142E050E038
:100190006FE171E081E591E00E948D008C0F9D1F61
:1001A000DF91CF910895FC01538D448D252F30E0D0
:1001B000842F90E0821B930B541710F0CF96089574
:1001C00001970895FC01918D828D981761F0A28DA1
:1001D000AE0FBF2FB11D5D968C91928D9F5F9F7367
:1001E000928F90E008958FEF9FEF0895FC01918D1D
:1001F000828D981731F0828DE80FF11D858D90E08A
:1002000008958FEF9FEF0895FC01918D228D892F26
:1002100090E0805C9F4F821B91098F73992708950E
:1002200081E591E00E94040121E0892B09F420E09E
:10023000822F089580E090E0892B29F00E94100120
:1002400081110C9400000895FC01A48DA80FB92F12
:10025000B11DA35ABF4F2C91848D90E001968F73EE
:100260009927848FA689B7892C93A089B1898C910D
:10027000837080648C93938D848D981306C002885C
:10028000F389E02D80818F7D80830895EF92FF9226
:100290000F931F93CF93DF93EC0181E0888F9B8DA9
:1002A0008C8D98131AC0E889F989808185FF15C063
:1002B0009FB7F894EE89FF896083E889F989808186
:1002C0008370806480839FBF81E090E0DF91CF9155
:1002D0001F910F91FF90EF900895F62E0B8D10E077
:1002E0000F5F1F4F0F731127E02E8C8D8E110CC0E6
:1002F0000FB607FCFACFE889F989808185FFF5CF31
:10030000CE010E942401F1CFEB8DEC0FFD2FF11DEA
:10031000E35AFF4FF0829FB7F8940B8FEA89FB896D
:1003200080818062CFCFCF93DF93EC01888D8823CB
:10033000B9F0AA89BB89E889F9898C9185FD03C048
:10034000808186FD0DC00FB607FCF7CF8C9185FF2D
:10035000F2CF808185FFEDCFCE010E942401E9CF4D
:10036000DF91CF910895833081F028F4813099F0A6
:100370008230A9F008958730A9F08830C9F0843020
:10038000B1F4809180008F7D03C0809180008F77D1
:1003900080938000089584B58F7784BD089584B5D7
:1003A0008F7DFBCF8091B0008F778093B000089550
:1003B0008091B0008F7DF9CFCF93DF93EEE7F0E02F
:1003C0008491E2E9F0E0D491E0EBF0E0C491CC2339
:1003D000A1F081110E94B301EC2FF0E0EE0FFF1F9E
:1003E000EE58FF4FA591B491EC91ED2381E090E0A0
:1003F00009F480E0DF91CF91089580E090E0FACF9A
:100400001F93CF93DF93282F30E0F901E458FF4F7B
:100410008491F901E057FF4FD491F901E255FF4F64
:10042000C491CC23A9F0162F81110E94B301EC2FA7
:10043000F0E0EE0FFF1FEC55FF4FA591B4918FB781
:10044000F894EC91111108C0D095DE23DC938FBF96
:10045000DF91CF911F910895DE2BF8CFCF93DF93DB
:1004600090E0FC01E057FF4F249182559F4FFC0123
:1004700084918823D1F090E0880F991FFC01E859FE
:10048000FF4FA591B491FC01EC55FF4FC591D4915C
:10049000623071F49FB7F8943C91822F809583234A
:1004A0008C93E8812E2B28839FBFDF91CF910895F5
:1004B0008FB7F894EC912E2B2C938FBFF6CF4F92E1
:1004C0005F926F927F928F929F92AF92BF92CF92E4
:1004D000DF92EF92FF920F931F93CF938C016A01EB
:1004E0007B0180910601883099F08F3F09F453C059
:1004F000CF911F910F91FF90EF90DF90CF90BF9021
:10050000AF909F908F907F906F905F904F900895E5
:10051000E2ECF0E0C491C7FDEBCF61E088E00E941F
:100520002E022801712C612CCC23F1F0980150E0AF
:1005300040E0C23009F09EC028013A0164E274EF45
:1005400080E090E00E94A20849015A0181E0881AE7
:100550009108A108B10895E08FEF88169104A104D5
:10056000B10409F00CF4DFC062E17AE780E090E0CA
:10057000A30192010E94A20849015A0181E0881A50
:100580009108A108B10896E0C111CDC085B5887F5A
:10059000846085BD84C088E080930601E2ECF0E0D1
:1005A000C491CF3F09F4A4CFC13021F150F0C23043
:1005B00009F43EC0C7FD9CCF61E088E00E942E0296
:1005C000B5CF14BC15BC84B5826084BD85B581608F
:1005D00085BDE6EBF0E0E491F0E0EE0FFF1FEC5597
:1005E000FF4F85919491E8E9F0E0E491E093F20106
:1005F000C0E093CF10928000109281008091810022
:100600008860809381008091810081608093810067
:10061000E6EBF0E0E491F0E0EE0FFF1FEC55FF4F4A
:1006200085919491E8E9F0E0E491E093F10175CFD0
:100630001092B0001092B1008091B000826080935F
:10064000B0008091B10081608093B100E6EBF0E0F2
:10065000E491F0E0EE0FFF1FEC55FF4F8591949170
:100660009093F0018093EF01E8E9F0E0E491E093EA
:10067000EE0153CF60E072E18AE790E00E94A208A9
:1006800049015A0181E0881A9108A108B108C130D6
:1006900031F480918100887F816080938100D8014E
:1006A000AA0FBB1FA70196010E942F0828EE33E076
:1006B00040E050E00E948008C13099F0C23019F14A
:1006C000C11116CF87BC2093FB013093FC014093EE
:1006D000FD015093FE0180916E00826080936E0058
:1006E00007CF90928900809288002093F701309381
:1006F000F8014093F9015093FA0180916F008260F4
:1007000080936F00F5CE8092B3002093F301309375
:10071000F4014093F5015093F601809170008260DE
:1007200080937000E5CE8091B100887F892B809303
:10073000B100B5CF3FB7F89480914D0190914E0133
:10074000A0914F01B091500126B5A89B05C02F3F45
:1007500019F00196A11DB11D3FBFBA2FA92F982FE7
:100760008827BC01CD01620F711D811D911D42E0E2
:10077000660F771F881F991F4A95D1F708958F92AA
:100780009F92AF92BF92CF92DF92EF92FF926B0156
:100790007C010E949A034B015C01C114D104E10465
:1007A000F104B9F00E949A03681979098A099B0932
:1007B000683E73408105910580F321E0C21AD1089B
:1007C000E108F10888EE880E83E0981EA11CB11C98
:1007D000E4CFFF90EF90DF90CF90BF90AF909F90CD
:1007E0008F9008950F931F93CF93DF93EC0188812F
:1007F0009981009759F02A813B812617370730F0FD
:1008000081E0DF91CF911F910F9108958B016F5F70
:100810007F4F0E94EC09009759F0998388831B83CE
:100820000A832C813D81232B59F7FC011082E8CFEC
:1008300080E0E7CFCF93DF93EC0188819981009727
:1008400011F00E946309198218821D821C821B828A
:100850001A82DF91CF9108950F931F93CF93DF9367
:10086000EC010C811D810C5F1F4FB8010E94F20347
:10087000882391F0288139818C819D8162E271E029
:10088000820F931F0E94B20A1D830C83CE01DF9159
:10089000CF911F910F910895CE010E941A04F6CFB7
:1008A000CF93DF93EC01198218821B821A821D827A
:1008B0001C8260E270E00E94F203811105C0CE014B
:1008C000DF91CF910C941A0480E290E09D838C8399
:1008D00067E271E088819981DF91CF910C94B20A2F
:1008E000CF92DF92EF92FF920F931F93CF93DF93FC
:1008F000CDB7DEB762970FB6F894DEBF0FBECDBF9F
:100900008C01CB01F80111821082138212821582B0
:1009100014824AE09E012F5F3F4F6901B9010E9496
:10092000FA07F60101900020E9F731977F01EC18F2
:10093000FD08B701C8010E94F203811112C0C8016D
:100940000E941A0462960FB6F894DEBF0FBECDBFA8
:10095000DF91CF911F910F91FF90EF90DF90CF909B
:100960000895F801F582E482B601808191810E94A8
:10097000B20AE8CFEF92FF920F931F93CF93DF93CA
:10098000EC01FB01E080F180E114F10411F104813C
:10099000158101151105A9F08C819D81080F191F82
:1009A000B801CE010E94F203882399F02881398191
:1009B0008C819D81B701820F931F0E94B20A1D8313
:1009C0000C83CE01DF91CF911F910F91FF90EF909B
:1009D0000895CE010E941A04F4CFFC018081918118
:1009E000009711F00C94630908951F920F920FB6AF
:1009F0000F9211242F933F934F935F936F937F93A5
:100A00008F939F93AF93BF93EF93FF938091F301E5
:100A10009091F401A091F501B091F601892B8A2BF8
:100A20008B2BD1F19091EE01E091EF01F091F0016B
:100A30008081892780838091F3019091F401A091B6
:100A4000F501B091F601181619061A061B069CF45A
:100A50008091F3019091F401A091F501B091F6011C
:100A60000197A109B1098093F3019093F401A09338
:100A7000F501B093F601FF91EF91BF91AF919F9176
:100A80008F917F916F915F914F913F912F910F9037
:100A90000FBE0F901F90189580910601E2ECF0E0D8
:100AA000E4919FEF90930601E13051F030F0E23095
:100AB00069F060E00E940002DECF10926E00F9CF74
:100AC00090916F009D7F90936F00F3CF9091700095
:100AD0009D7F9093700091E09093B0009091B10051
:100AE000987F94609093B1001092B300E2CF1F9270
:100AF0000F920FB60F9211242F933F934F935F9352
:100B00006F937F938F939F93AF93BF93EF93FF93D5
:100B100081E591E00E942401FF91EF91BF91AF9197
:100B20009F918F917F916F915F914F913F912F9105
:100B30000F900FBE0F901F9018951F920F920FB637
:100B40000F9211242F938F939F93EF93FF93E09134
:100B50006101F09162018081E0916701F09168018B
:100B600082FD1BC0908180916A018F5F8F732091FD
:100B70006B01821741F0E0916A01F0E0EF5AFE4FFD
:100B8000958F80936A01FF91EF919F918F912F91A3
:100B90000F900FBE0F901F9018958081F4CF1F9279
:100BA0000F920FB60F9211242F933F938F939F9321
:100BB000AF93BF938091490190914A01A0914B015D
:100BC000B0914C013091480123E0230F2D3758F5A7
:100BD0000196A11DB11D2093480180934901909376
:100BE0004A01A0934B01B0934C0180914D0190912B
:100BF0004E01A0914F01B09150010196A11DB11D70
:100C000080934D0190934E01A0934F01B0935001FA
:100C1000BF91AF919F918F913F912F910F900FBEF8
:100C20000F901F90189526E8230F0296A11DB11D65
:100C3000D2CFCF93DF93CDB7DEB72C970FB6F89412
:100C4000DEBF0FBECDBF789484B5826084BD84B50D
:100C5000816084BD85B5826085BD85B5816085BDB7
:100C600080916E00816080936E001092810080916F
:100C700081008260809381008091810081608093F7
:100C80008100809180008160809380008091B1001C
:100C900084608093B1008091B00081608093B00047
:100CA00080917A00846080937A0080917A008260DB
:100CB00080937A0080917A00816080937A0080919D
:100CC0007A00806880937A001092C100E0916101FF
:100CD000F091620182E08083E0915D01F0915E011C
:100CE0001082E0915F01F09160018FEC808310929F
:100CF0006901E0916501F091660186E08083E091F1
:100D00006301F0916401808180618083E0916301DF
:100D1000F0916401808188608083E0916301F091AB
:100D20006401808180688083E0916301F0916401B7
:100D300080818F7D808362E082E00E942E0261E0EC
:100D400083E00E942E0261E084E00E942E0261E0B6
:100D500085E00E942E0261E086E00E942E0261E0A2
:100D600087E00E942E0261E089E00E942E0261E08D
:100D70008AE00E942E0261E08BE00E942E0261E078
:100D80008CE00E942E0261E08DE00E942E0244EF72
:100D900051E060E070E088EC90E00E945F026AEF52
:100DA00070E080E090E00E94BF0344E650E060E025
:100DB00070E080E991E00E945F0263E0E62EF12C92
:100DC0007DE0C72ED12CE0E0AE2EE0E0BE2EF0920A
:100DD0000501E092040180900401909005018EE0ED
:100DE000881691040CF060C088E08816910471F4B4
:100DF00060E088E00E94000280910401909105016A
:100E000001969093050180930401E5CF61E0882D60
:100E10000E9400020091020110910301B801012E0D
:100E2000000C880B990B0E94BF0360E0882D0E9484
:100E300000020E94DC01892BF9F66091000170919B
:100E40000101660F771F7093010160930001C801D3
:100E500017FD019695958795909303018093020164
:100E6000CE0101960E947004CE0107960E945004A4
:100E7000BE016F5F7F4FCE0107960E94BA040E94A9
:100E80002C040E94BA00CE0107960E94ED04CE0108
:100E900001960E94ED0444E650E060E070E080E9D5
:100EA00091E00E945F02A8CFD0920501C092040198
:100EB000809004019090050183E0881691040CF461
:100EC00060C088E08816910471F460E088E00E94B8
:100ED0000002809104019091050101979093050112
:100EE00080930401E5CF61E0882D0E94000200910B
:100EF000020110910301B801012E000C880B990B1F
:100F00000E94BF0360E0882D0E9400020E94DC0165
:100F1000892BF9F66091000170910101660F771F2E
:100F20007093010160930001C80117FD019695952A
:100F300087959093030180930201CE0101960E9450
:100F40007004CE0107960E945004BE016F5F7F4F70
:100F5000CE0107960E94BA040E942C040E94BA0097
:100F6000CE0107960E94ED04CE0101960E94ED0489
:100F700044E650E060E070E080E991E00E945F02AA
:100F8000A8CFA114B10409F422CF0E941001882334
:100F900009F41DCF0E9400001ACFE1E5F1E01382B1
:100FA000128288EE93E0A0E0B0E084839583A6836C
:100FB000B78381E191E09183808385EC90E0958710
:100FC000848784EC90E09787868780EC90E0918B13
:100FD000808B81EC90E0938B828B82EC90E0958B00
:100FE000848B86EC90E0978B868B118E128E138EFD
:100FF000148E0895BB274A3031F4992322F4BDE2C0
:10100000909581959F4F0C940608BB27FB015527AF
:10101000AA27880F991FAA1FA41710F0A41B839555
:101020005051B9F7A05DAA3308F0A95DA1930097CC
:1010300079F7B111B1931192CB010C941F08DC0127
:10104000FC01672F71917723E1F7329704C07C91FF
:101050006D9370836291AE17BF07C8F308950E9425
:101060007108A59F900DB49F900DA49F800D911DB8
:10107000112408952F923F924F925F926F927F9228
:101080008F929F92AF92BF92CF92DF92EF92FF9298
:101090000F931F93CF93DF93CDB7DEB7CA1BDB0B44
:1010A0000FB6F894DEBF0FBECDBF09942A883988E9
:1010B00048885F846E847D848C849B84AA84B984F0
:1010C000C884DF80EE80FD800C811B81AA81B981FC
:1010D000CE0FD11D0FB6F894DEBF0FBECDBFED0110
:1010E0000895A29FB001B39FC001A39F700D811D01
:1010F0001124911DB29F700D811D1124911D089521
:10110000A1E21A2EAA1BBB1BFD010DC0AA1FBB1F0B
:10111000EE1FFF1FA217B307E407F50720F0A21B7D
:10112000B30BE40BF50B661F771F881F991F1A94EA
:1011300069F760957095809590959B01AC01BD0114
:10114000CF010895052E97FB1EF400940E94B90864
:1011500057FD07D00E94800807FC03D04EF40C9482
:10116000B90850954095309521953F4F4F4F5F4FAF
:10117000089590958095709561957F4F8F4F9F4F03
:101180000895EE0FFF1F0590F491E02D09940F9341
:101190001F93CF93DF938230910510F482E090E0AB
:1011A000E0910102F091020230E020E0B0E0A0E026
:1011B000309799F42115310509F44AC0281B390BE1
:1011C00024303105D8F58A819B816115710589F13B
:1011D000FB0193838283FE0111C040815181028112
:1011E000138148175907E0F04817590799F41097E9
:1011F00061F012960C93129713961C933296CF01BE
:10120000DF91CF911F910F910895009301021093E8
:101210000202F4CF2115310551F04217530738F07F
:10122000A901DB019A01BD01DF01F801C1CFEF0186
:10123000F9CF9093020280930102CDCFFE01E20F1D
:10124000F31F819391932250310939832883D7CF9B
:101250002091FF0130910002232B41F420910901DC
:1012600030910A01309300022093FF012091070181
:10127000309108012115310541F42DB73EB7409159
:101280000B0150910C01241B350BE091FF01F091F3
:101290000002E217F307A0F42E1B3F0B28173907B3
:1012A00078F0AC014E5F5F4F2417350748F04E0FC2
:1012B0005F1F509300024093FF01819391939FCF52
:1012C000F0E0E0E09CCFCF93DF930097E9F0FC01E2
:1012D000329713821282A0910102B0910202ED01B5
:1012E00030E020E01097A1F420813181820F931F1C
:1012F0002091FF01309100022817390709F061C0E1
:10130000F0930002E093FF01DF91CF910895EA018D
:10131000CE17DF07E8F54A815B819E014115510533
:10132000B1F7E901FB83EA8349915991C40FD51FB5
:10133000EC17FD0761F4808191810296840F951F5F
:10134000E90199838883828193819B838A83F0E07A
:10135000E0E012968D919C9113970097B9F52D912D
:101360003C911197CD010296820F931F2091FF01AE
:10137000309100022817390739F6309751F510924D
:10138000020210920102B0930002A093FF01BCCFB1
:10139000D383C28340815181840F951FC817D90719
:1013A00061F44E5F5F4F88819981480F591F5183C7
:1013B00040838A819B81938382832115310509F0C3
:1013C000B0CFF0930202E09301029ECFFD01DC0159
:1013D000C0CF13821282D7CFB0E0A0E0E2EFF9E0F5
:1013E0000C943C088C01009751F4CB010E94C70873
:1013F0008C01C801CDB7DEB7E0E10C945808FC01C0
:10140000E60FF71F9C0122503109E217F30708F499
:101410009DC0D901CD91DC911197C617D70798F0DF
:10142000C530D10530F3CE0104978617970708F32E
:10143000C61BD70B2297C193D1936D937C93CF0199
:101440000E946309D6CF5B01AC1ABD0A4C018C0E19
:101450009D1EA0910102B0910202512C412CF12C51
:10146000E12C109731F58091FF01909100028815D1
:10147000990509F05CC04616570608F058C08091DF
:10148000070190910801009741F48DB79EB74091F4
:101490000B0150910C01841B950BE817F90708F01C
:1014A00055C0F0930002E093FF01F901718360835E
:1014B000A0CF8D919C91119712966C9012971396D4
:1014C0007C901397A815B90559F56C0142E0C40E3C
:1014D000D11CCA14DB0420F1AC014A195B09DA0102
:1014E0001296159780F06282738251834083D901EE
:1014F0006D937C93E114F10471F0D7011396FC9382
:10150000EE93129776CF22968C0F9D1FF90191834F
:101510008083F301EFCFF0930202E093010269CFE1
:101520004816590608F42C017D01D3019ACFCB014E
:101530000E94C7087C01009749F0AE01B8010E94E3
:10154000A90AC8010E946309870153CF10E000E097
:1015500050CFFB01DC0102C001900D924150504080
:10156000D8F70895FB01DC0101900D920020E1F70E
:061570000895F894FFCF7E
:10157600010064000300FF00000302800000000079
:101586000046018D00D30093010401E200F6000D30
:101596000A00E2809D2900E2809C466173746572B0
:1015A60020582032202843757272656E742053705D
:0815B600656564203A2058002D
:107E0000112484B714BE81FFF0D085E080938100F7
:107E100082E08093C00088E18093C10086E0809377
:107E2000C20080E18093C4008EE0C9D0259A86E02C
:107E300020E33CEF91E0309385002093840096BBD3
:107E4000B09BFECF1D9AA8958150A9F7CC24DD24C4
:107E500088248394B5E0AB2EA1E19A2EF3E0BF2EE7
:107E6000A2D0813461F49FD0082FAFD0023811F036
:107E7000013811F484E001C083E08DD089C08234E0
:107E800011F484E103C0853419F485E0A6D080C0E4
:107E9000853579F488D0E82EFF2485D0082F10E0AE
:107EA000102F00270E291F29000F111F8ED06801E7
:107EB0006FC0863521F484E090D080E0DECF843638
:107EC00009F040C070D06FD0082F6DD080E0C81688
:107ED00080E7D80618F4F601B7BEE895C0E0D1E017
:107EE00062D089930C17E1F7F0E0CF16F0E7DF06D8
:107EF00018F0F601B7BEE89568D007B600FCFDCFD4
:107F0000A601A0E0B1E02C9130E011968C91119780
:107F100090E0982F8827822B932B1296FA010C0160
:107F200087BEE89511244E5F5F4FF1E0A038BF0790
:107F300051F7F601A7BEE89507B600FCFDCF97BE46
:107F4000E89526C08437B1F42ED02DD0F82E2BD052
:107F50003CD0F601EF2C8F010F5F1F4F84911BD097
:107F6000EA94F801C1F70894C11CD11CFA94CF0C13
:107F7000D11C0EC0853739F428D08EE10CD085E9AC
:107F80000AD08FE07ACF813511F488E018D01DD067
:107F900080E101D065CF982F8091C00085FFFCCF94
:107FA0009093C60008958091C00087FFFCCF809118
:107FB000C00084FD01C0A8958091C6000895E0E648
:107FC000F0E098E1908380830895EDDF803219F02E
:107FD00088E0F5DFFFCF84E1DECF1F93182FE3DFCA
:107FE0001150E9F7F2DF1F91089580E0E8DFEE27F6
:047FF000FF270994CA
:027FFE00040479
:0400000300007E007B
:00000001FF
